:020000040000FA
:1000000060020020C9010000D1010000D3010000FE
:10001000D5010000D7010000D90100000000000058
:10002000000000000000000000000000DB010000F4
:10003000DD01000000000000DF010000E101000020
:10004000E3010000E3010000E3010000E301000020
:10005000E3010000E3010000E3010000E301000010
:10006000E3010000E3010000E3010000E301000000
:10007000E3010000E3010000E3010000E3010000F0
:10008000E3010000E3010000E3010000E3010000E0
:10009000E3010000E3010000E3010000E3010000D0
:1000A000E3010000E3010000E3010000E3010000C0
:1000B000E3010000E3010000E3010000E3010000B0
:1000C000E3010000E3010000E3010000E3010000A0
:1000D000E3010000E3010000E3010000E301000090
:1000E000E3010000E3010000000000000000000048
:1000F0000000000000000000000000000000000000
:1001000000000000000000000000000000000000EF
:1001100000000000000000000000000000000000DF
:1001200000000000000000000000000000000000CF
:1001300000000000000000000000000000000000BF
:100140000000000000F002F800F02EF80AA090E88D
:10015000000C82448344AAF10107DA4501D100F082
:1001600023F8AFF2090EBAE80F0013F0010F18BF21
:10017000FB1A43F001031847140200002402000098
:100180000023002400250026103A28BF78C1FBD8A0
:10019000520728BF30C148BF0B6070471FB500F041
:1001A000EFF81FBD10B510BD00F02FF81146FFF796
:1001B000F5FF00F0B9F800F04DF803B4FFF7F2FFD7
:1001C00003BC00F055F80000094880470948004783
:1001D000FEE7FEE7FEE7FEE7FEE7FEE7FEE7FEE7F7
:1001E000FEE7FEE704480549034A054B7047000057
:1001F0008102000045010000600000206002002034
:1002000060000020704770477047754600F02CF87A
:10021000AE4605006946534620F00700854618B0F3
:1002200020B5FFF7DFFFBDE820404FF000064FF09C
:1002300000074FF000084FF0000B21F00701AC461B
:10024000ACE8C009ACE8C009ACE8C009ACE8C0093A
:100250008D46704710B50446AFF300802046BDE8D8
:100260001040FFF7AABF00000048704700000020C0
:1002700001491820ABBEFEE72600020070470000CF
:100280001E48006840F470001C4908604FF4B540F7
:100290001B49088000BF1B48006800F001000028CF
:1002A000F9D0184890384069042804D1082015492D
:1002B0009039086503E0022012499039086546F636
:1002C0005A10114908604FF48030091D0860081D5C
:1002D00000680E4908400C490831086000200A49AE
:1002E00008600B48006920F03000094908610846A1
:1002F000406920F0300048617047000088ED00E060
:100300000C480040903004E000040140FBFFF8FF7F
:1003100000100140002100E0491C40F277124243E6
:10032000B1EB420FF8DB70471448007820F007006B
:1003300012490870881E007820F00700891E087096
:10034000881F007840F00700891F0870881E007819
:1003500040F00200891E08704FF4FA70FFF7DAFFD0
:100360000BE006480A38007880F0070003490A3994
:1003700008704FF4FA70FFF7CDFFF2E70D4C004024
:100380004FF04070E1EE100A704700009C0300003F
:0C0390000000002060020000800100005E
:04000005000001C92D
:00000001FF
